:020000001628C0
:0E0006008312031324088A00230882000800D6
:1000140003208A110A128000840AA30A0319A40A7D
:08002400F003031D0A28080087
:10002C00083083120313A0000130A100A201831633
:10003C008E15073083129F00FF30831685008601D2
:10004C0083122008860005182C2843282008803AA3
:10005C00031D34280130A1000030A2002008013A11
:10006C00031D3A28A101A2012108220403194128E9
:10007C00A00CA0134328A00D2010200886000230ED
:10008C00FB000430FC00BA30FD00FD0B4B28FC0BD0
:0C009C004B28FB0B4B28000029285328A0
:02400E00182177
:00000001FF
