:0200000049288D
:10000600043083120313F2002A08F0002B08F100D3
:10001600720803191328F00DF10D7010FF3E0C281D
:0E0026002C08F0072D080318013EF107080012
:100034008312031326088316850083122008AA005E
:100044002108AB002208AC002308AD00032070088F
:04005400860008001A
:0E0058008312031329088A002808820008007A
:1000660083120313A601A701A201A301A001A10106
:040076001A20080044
:10007A002C208A110A128000840AA80A0319A90AE4
:08008A00F003031D3D280800EE
:1000920083120313A001A101A201A301A401A501DE
:1000A200A601A70183168E15F03085008601831202
:1000B200850186010230FB000430FC00BA30FD00ED
:1000C200FD0B6128FC0B6128FB0B61280000051F5A
:1000D2006B283320851E78282408250403197428E8
:1000E200A401A50178280130A4000030A50024084D
:1000F20025040319A328A60A0319A70A0030270614
:10010200031D85280A302606031D8C28A601A70197
:10011200A20A0319A30A00302306031D92280A30FB
:100122002206031D9928A201A301A00A0319A10A0C
:1001320000302106031D9F280A302006031DA22835
:0801420033201A205B28A428D9
:02400E00182177
:00000001FF
