:02000000932843
:10000600043083120313F2003608F0003708F100BB
:10001600720803191328F00DF10D7010FF3E0C281D
:0E0026003808F00739080318013EF1070800FA
:100034008312031334088316850083123008B60034
:100044003108B7003208B8003308B900032070083B
:04005400860008001A
:0E005800831203132F088A002E08820008006E
:100066000030831203132106031D3B2801302006AE
:10007600031D4A282808B0002908B1002A08B20042
:100086002B08B3002C08B4002D08B5001A20003048
:100096002106031D502802302006031D5F28220872
:1000A600B0002308B1002808B2002908B3002A08C6
:1000B600B4002B08B5001A2000302106031D652860
:1000C60003302006031D74282408B0002508B1005B
:1000D6002208B2002308B3002808B4002908B50096
:0400E6001A200800D4
:1000EA0083120313AC01AD01AA01AB01A801A90156
:1000FA00A201A301A401A5010130A0000030A100C2
:04010A003320080096
:10010E002C208A110A128000840AAE0A0319AF0A43
:08011E00F003031D872808000F
:10012600013083120313A000A101A201A301A401BF
:10013600A501A601A701A801A901AA01AB01AC016D
:10014600AD0183168E15F030850086018312850178
:1001560086010330FC009730FD00FD0BB028FC0B38
:10016600B02800000000051FC22875201A30FC00C8
:10017600F830FD00FD0BBD28FC0BBD280000851ED8
:10018600D828260827040319CB28A601A701CF28BB
:100196000130A6000030A7001A30FC00F830FD0040
:1001A600FD0BD328FC0BD3280000260827040319CF
:1001B6003529AC0A0319AD0A00302D06031DE528C2
:1001C6000A302C06031DEC28AC01AD01AA0A03195E
:1001D600AB0A00302B06031DF2280A302A06031D3F
:1001E600F928AA01AB01A80A0319A90A00302906B1
:1001F600031DFF280A302806031D1229A801A9019C
:10020600A20A0319A30A00302106031D0C29013096
:100216002006031D12290230A0000030A100003084
:100226002306031D18290A302206031D2B29A201C5
:10023600A301A40A0319A50A00302106031D2529D6
:1002460002302006031D2B290330A0000030A10038
:1002560000302506031D31290A302406031D3429E2
:0802660075203320AC28362975
:02400E00182177
:00000001FF
