:020000005F2877
:1000060083120313A601A701A801A901A001A1015A
:06001600A201A301080095
:0E001C00831203132B088A002A0882000800B2
:10002A0083120313A60A0319A70A00302706031D21
:10003A0020280A302606031D2728A601A701A80A98
:10004A000319A90A00302906031D2D280A3028069B
:10005A00031D3428A801A901A00A0319A10A003026
:10006A002106031D3A280A302006031D3D280320D5
:02007A0008007C
:0E007C0003308312031385002E08860008004F
:10008A000E208A110A128000840AAA0A0319AB0AEE
:08009A00F003031D45280800D6
:0E00A20006308312031385002E088600080026
:0E00B00005308312031385002E088600080019
:1000BE0083120313A001A101A201A301A401A501B2
:1000CE00A601A701A801A90183168E15F03085009F
:1000DE0086018312850186011130FC003A30FD0045
:1000EE00FD0B7728FC0B7728000000302506031D3A
:1000FE00822800302406031D9D28851E9D28003071
:10010E002306031D8C2809302206031D9128AC01FD
:10011E00AD0199282208013EAC0000300318013EC3
:10012E002307AD002C08A2002D08A3000030851A6D
:10013E000130A400A501051FA528032000302306C9
:10014E00031DAB2801302206031DAE2815202608FC
:10015E00AE002708AF005120F930FD00FD0BB52889
:10016E00000000002808AE002908AF005820F93022
:10017E00FD00FD0BC028000000002008AE00210885
:08018E00AF003E207328CA28CF
:02400E00182177
:00000001FF
