:0200000089284D
:10000600043083120313F2003008F0003108F100C7
:10001600720803191328F00DF10D7010FF3E0C281D
:0E0026003208F00733080318013EF107080006
:10003400831203132E088316850083122A08B00046
:100044002B08B1002C08B2002D08B300032070085F
:04005400860008001A
:0E0058008312031329088A002808820008007A
:1000660083120313A601A701A001A101A201A30106
:10007600AA01AB01AC01AD01AE01AF011A20080027
:10008600831203132408250403197C28A60A0319DE
:10009600A70A00302706031D52280A302606031D2C
:1000A6005928A601A701A00A0319A10A00302106B2
:1000B600031D5F280A302006031D6628A001A10142
:1000C600A20A0319A30A00302306031D6C280A306E
:1000D6002206031D6F2833202208AA002308AB003E
:1000E6002008AC002108AD002608AE002708AF00A6
:0400F6001A200800C4
:1000FA002C208A110A128000840AA80A0319A90A64
:08010A00F003031D7D2808002D
:1001120083120313A001A101A201A301A401A5015D
:10012200A601A70183168E15F03085008601831281
:10013200850186010230FB000430FC00BA30FD006C
:10014200FD0BA128FC0BA128FB0BA12800004320DA
:040152009B28AA2814
:02400E00182177
:00000001FF
