:0200000078285E
:10000800FF00030E8301AB000A08AA008A017008EA
:10001800A0005620DB308E000B308F000C1020081B
:10002800F0002A088A002B0E8300FF0E7F0E0900BD
:10003800043083120313F2003408F0003508F1008D
:10004800720803192C28F00DF10D7010FF3E2528B9
:0E0058003608F00737080318013EF1070800CC
:0E0066008312031329088A002808820008006C
:1000740033208A110A128000840AA80A0319A90AE3
:08008400F003031D3A280800F7
:10008C0083120313320885002E08B4002F08B50024
:10009C003008B6003108B7001C2070088600080034
:1000AC0083120313A20A0319A30A00302306031DAB
:1000BC0061280A302206031D7228A201A301A40A9A
:1000CC000319A50A00302506031D6E280A302406E4
:0A00DC00031D7228A401A50108000D
:0A00E60083120313A601A70108000E
:1000F00083120313A101A201A301A401A501A6017A
:10010000A70183168E15F0308500860183128501C4
:100110008601101290169010DB308E000B308F008D
:1001200010148B1783160C140B1783122108003A36
:10013000031DB328851EB32800302706031DA228FF
:1001400009302606031DA728AC01AD01AF282608FB
:10015000013EAC0000300318013E2707AD002C081B
:10016000A6002D08A7000030851A0130A100051F48
:10017000BA2873202608AE002708AF002208B00076
:100180002308B1002408B2002508B30046209528B2
:02019000C8287D
:02400E00182177
:00000001FF
