:02000000AE2828
:10000800FF00030E8301A5000A08A4008A01061E4A
:100018001428051C122805108514142805148510A9
:10002800861E56282008003A031D35280130A000F6
:1000380067308316920083122108003A031D27288F
:100048001A30950034282108013A031D2E2834302F
:10005800950034282108023A031D34284E309500B3
:1000680056282008013A031D5628A001143083168B
:10007800920083122108003A031D46280530950096
:10008800171656282108013A031D4E280A309500F4
:10009800971656282108023A031D56280F30950056
:1000A80030309704061F5E28A10A2108023C031875
:1000B8005E28A1012008003A031D7B282108003A88
:1000C800031D6A280530950017167A282108013A79
:1000D800031D72280A30950097167A282108023ADB
:1000E800031D7A280F309500303097049328200894
:1000F800013A031D93282108003A031D86281A3067
:10010800950093282108013A031D8D283430950065
:1001180093282108023A031D93284E3095000B10AE
:0E01280024088A00250E8300FF0E7F0E0900BA
:0E0136008312031323088A00220882000800A7
:100144009B208A110A128000840AA20A0319A30AB6
:08015400F003031DA2280800BE
:10015C0083120313A001A10183168501831286016A
:10016C0014308316920005308312950017168316EF
:10017C0086118312121492141215971517158B17DA
:0A018C008B150B100A308500CA28FD
:02400E00182177
:00000001FF
